:100000000C9434000C9446000C9446000C9446006A
:100010000C9446000C9446000C9446000C94460048
:100020000C9446000C9446000C9446000C94460038
:100030000C9446000C9446000C941E010C9446004F
:100040000C9446000C9446000C9446000C94460018
:100050000C9446000C9468010C9446000C944600E5
:100060000C9464000C94460011241FBECFEFD8E01E
:10007000DEBFCDBF21E0A0E0B1E001C01D92A33101
:10008000B207E1F70E94F3000C94A3010C94000066
:100090000F931F93E0E0F1E010821182128234830B
:1000A0002383168305834093B900E8EBF0E0608377
:1000B000880F81608093BA0080E2808385E480931A
:1000C000BC001F910F9108951F920F920FB60F92CF
:1000D00011242F933F934F935F936F937F938F934D
:1000E0009F93AF93BF93EF93FF938091B900887F65
:1000F0008038B1F030F4882309F45CC0803651F0C8
:100100005DC0883A09F444C0883B09F441C0803A94
:10011000A9F154C085EC8093BC001092000151C03D
:100120008091000181110FC08091BB00E0E0F1E0FF
:10013000818395EC9093BC00A381B481A80FB11D7D
:100140008C91828315C0813021F485EC8093BC00B2
:100150000FC09091BB00E0E0F1E08181A581B68104
:10016000A80FB11D9C9395EC9093BC008F5F818389
:10017000E0E0F1E080818F5F808323C08091000107
:10018000833010F00E94F20085EC8093BC0019C00F
:10019000E0E0F1E082818093BB0085EC8093BC00BD
:1001A00081818F5F8183A381B481A80FB11D8C9160
:1001B000828307C085E98093BC0003C085EC8093EF
:1001C000BC00FF91EF91BF91AF919F918F917F9173
:1001D0006F915F914F913F912F910F900FBE0F90B4
:1001E0001F9018950895E8E0F1E0108211821282C4
:1001F0001382148215821682178210868F019F0146
:1002000040E068E388E40E9448008CE78AB91092D5
:10021000120180E480937C008EEC80937A0087E06A
:1002200080937B001092070182E084BD93E095BD2E
:1002300080936E0088E087BD7894FFCF1F920F9265
:100240000FB60F9211248F939F93809107018F5FB8
:100250008F738093070190910E0190FF0BC09091D6
:100260000F01891718F45C985D9A0EC08BB18F7CD2
:100270008BB90AC090910F01891718F45D985C9AA8
:1002800003C08BB18F7C8BB980910E0181FF0DC0B3
:100290009091100180910701891718F45A985B9A80
:1002A00010C08BB1837F8BB90CC0909110018091ED
:1002B0000701891718F45B985A9A03C08BB1837FA2
:1002C0008BB99F918F910F900FBE0F901F90189533
:1002D0001F920F920FB60F9211242F933F938F937B
:1002E0009F93EF93FF9320911201822F90E0880F4C
:1002F000991F30917800FC01E85FFE4F3083309108
:1003000079008160FC01E85FFE4F30832F5F23306E
:1003100018F42093120102C0109212018091120170
:10032000806480937C00EAE7F0E0808180648083D1
:10033000FF91EF919F918F913F912F910F900FBE61
:0A0340000F901F901895F894FFCF5E
:00000001FF
