:100000000C9434000C9446000C9446000C9446006A
:100010000C9446000C9446000C9446000C94460048
:100020000C9446000C9446000C9446000C94460038
:100030000C9446000C9446000C946F000C944600FF
:100040000C9446000C9446000C9446000C94460018
:100050000C9446000C9446000C9446000C94460008
:100060000C9497000C94460011241FBECFEFD8E0EB
:10007000DEBFCDBF21E0A0E0B1E001C01D92A23003
:10008000B207E1F70E9452000C9435010C94000075
:100090009BB188E089278BB908959BB184E08927BB
:1000A0008BB90895CF93DF9300D01F92CDB7DEB701
:1000B000CE010196909301018093000140E068E336
:1000C00088E40E94790082E084BD95E095BD80932C
:1000D0006E0088EC87BD8CE08AB97894FFCF1F92C0
:1000E0000F920FB60F9211240F900FBE0F901F901A
:1000F0001895E0910001F09101011082E09100015A
:10010000F09101011182E0910001F0910101128250
:100110004093B900E8EBF0E06083880F8160809342
:10012000BA0080E2808385E48093BC0008951F922A
:100130000F920FB60F9211242F933F934F935F931B
:100140006F937F938F939F93AF93BF93EF93FF939F
:100150008091B900887F8038C9F030F4882309F491
:100160006CC0803651F06DC0883A09F44EC0883BAF
:1001700009F44BC0803AB1F164C085EC8093BC00B7
:10018000E0910001F091010110825EC0E091000158
:10019000F0910101808181110DC08091BB008183AC
:1001A00085EC8093BC00E0910001F091010185E4B1
:1001B000828310C0813021F485EC8093BC000AC09A
:1001C00085EC8093BC00E0910001F09101018181F8
:1001D0008F5F8183E0910001F091010180818F5F49
:1001E000808332C0E0910001F09101018081813073
:1001F00021F481810E944D0004C0833010F00E94E0
:10020000480085EC8093BC001FC0E0910001F09194
:10021000010182818093BB0085EC8093BC00E0915A
:100220000001F091010181818F5F8183E0910001E4
:10023000F091010186E4828307C085E98093BC00C8
:1002400003C085EC8093BC00FF91EF91BF91AF910B
:100250009F918F917F916F915F914F913F912F91DE
:0E0260000F900FBE0F901F901895F894FFCFCF
:00000001FF
