:100000000C9434000C9446000C9446000C9446006A
:100010000C9446000C9446000C9446000C94070285
:100020000C9446000C94E4010C9446000C94460099
:100030000C9446000C9446000C94D1010C9446009C
:100040000C9446000C9446000C9446000C94460018
:100050000C9446000C9446000C9446000C94460008
:100060000C9464000C94460011241FBECFEFD8E01E
:10007000DEBFCDBF21E0A0E0B1E001C01D92AA32F9
:10008000B207E1F70E9441010C941C020C9400009D
:100090000F931F93E0E0F1E010821182128234830B
:1000A0002383168305834093B900E8EBF0E0608377
:1000B000880F81608093BA0080E2808385E480931A
:1000C000BC001F910F9108951F920F920FB60F92CF
:1000D00011242F933F934F935F936F937F938F934D
:1000E0009F93AF93BF93EF93FF938091B900887F65
:1000F0008038B1F030F4882309F463C0803651F0C1
:1001000064C0883A09F44BC0883B09F448C0803A7F
:10011000A9F15BC085EC8093BC001092000158C02F
:100120008091000181110FC08091BB00E0E0F1E0FF
:10013000818395EC9093BC00A381B481A80FB11D7D
:100140008C91828315C0813021F485EC8093BC00B2
:100150000FC09091BB00E0E0F1E08181A581B68104
:10016000A80FB11D9C9395EC9093BC008F5F818389
:10017000E0E0F1E080818F5F80832AC08091000100
:10018000813029F4809101010E94F90004C083307C
:1001900010F00E94FC0085EC8093BC0019C0E0E0E8
:1001A000F1E082818093BB0085EC8093BC0081816B
:1001B0008F5F8183A381B481A80FB11D8C9182834D
:1001C00007C085E98093BC0003C085EC8093BC0028
:1001D000FF91EF91BF91AF919F918F917F916F911F
:1001E0005F914F913F912F910F900FBE0F901F90F5
:1001F00018955E98A8950895089520917800822F0B
:1002000020917900922F20911401E22FF0E0EE0F5F
:10021000FF1FE95FFE4F41815281840F951F92833A
:1002200081832F5F243018F4209314011BC0E7E072
:10023000F1E0158680818F5F803418F48093070188
:1002400011C010920701A6E1B1E09FEFE8E0F1E0F4
:100250008081980F8D93119281E0E031F807C1F70A
:1002600090931E01E0911401F0E0E95FFE4F81855B
:10027000806480937C00EAE7F0E080818065808381
:100280000895C6E1D1E0188219821A821B821C826D
:100290001D821E821F82188619861A861B8680E898
:1002A0008C878E019E0140E068E788E40E94480048
:1002B0008CEF8AB920E42BB99DE088E10FB6F89461
:1002C000A895809360000FBE90936000E7E0F1E096
:1002D0001586118691E0928782E083873FE034871C
:1002E000128211821482138216821582108617825E
:1002F000108220937C0027EC20937A0027E0209343
:100300007B001092150184BD33E035BD80936E00F3
:1003100088E087BD219A1092B0008C858093B3004D
:100320002093B1009093700078940AE710E0F801F0
:10033000808184FD0E94FD00898580FF0CC09A8524
:1003400080911501891718F45C985D9A0FC08BB1E4
:100350008F7C8BB90BC09A8580911501891718F491
:100360005D985C9A03C08BB18F7C8BB9898581FFC6
:100370000CC09B8580911501891718F45A985B9AD7
:10038000D6CF8BB1837F8BB9D2CF9B85809115015E
:10039000891718F45B985A9ACACF8BB1837F8BB9AF
:1003A000C6CF78941F920F920FB60F9211248F939D
:1003B000809115018F5F8F73809315018F910F903E
:1003C0000FBE0F901F9018951F920F920FB60F92AD
:1003D00011248F939F93EF93FF93299AE1EBF0E021
:1003E0001082809122018093B30082E08093B0005C
:1003F0009FEF97BB8093700086E08083FF91EF9121
:100400009F918F910F900FBE0F901F9018951F9284
:100410000F920FB60F9211248F93299881E0809349
:1004200070001092B00087E08093B1008F910F9020
:0C0430000FBE0F901F901895F894FFCF9E
:00000001FF
