:100000000C9434000C9446000C9446000C9446006A
:100010000C9446000C9446000C9446000C94460048
:100020000C9446000C9446000C9446000C94460038
:100030000C9446000C9446000C9422010C9446004B
:100040000C9446000C9446000C9446000C94460018
:100050000C9446000C9446000C9446000C94460008
:100060000C9464000C94460011241FBECFEFD8E01E
:10007000DEBFCDBF21E0A0E0B1E001C01D92A730FE
:10008000B207E1F70E9403010C942C010C940000CC
:100090000F931F93E0E0F1E010821182128234830B
:1000A0002383168305834093B900E8EBF0E0608377
:1000B000880F81608093BA0080E2808385E480931A
:1000C000BC001F910F9108951F920F920FB60F92CF
:1000D00011242F933F934F935F936F937F938F934D
:1000E0009F93AF93BF93EF93FF938091B900887F65
:1000F0008038B1F030F4882309F463C0803651F0C1
:1001000064C0883A09F44BC0883B09F448C0803A7F
:10011000A9F15BC085EC8093BC001092000158C02F
:100120008091000181110FC08091BB00E0E0F1E0FF
:10013000818395EC9093BC00A381B481A80FB11D7D
:100140008C91828315C0813021F485EC8093BC00B2
:100150000FC09091BB00E0E0F1E08181A581B68104
:10016000A80FB11D9C9395EC9093BC008F5F818389
:10017000E0E0F1E080818F5F80832AC08091000100
:10018000813029F4809101010E94FE0004C0833077
:1001900010F00E94F90085EC8093BC0019C0E0E0EB
:1001A000F1E082818093BB0085EC8093BC0081816B
:1001B0008F5F8183A381B481A80FB11D8C9182834D
:1001C00007C085E98093BC0003C085EC8093BC0028
:1001D000FF91EF91BF91AF919F918F917F916F911F
:1001E0005F914F913F912F910F900FBE0F901F90F5
:1001F00018959BB188E089278BB908959BB184E05D
:1002000089278BB90895CF93DF93CDB7DEB72A97AF
:100210000FB6F894DEBF0FBECDBF8E010F5F1F4F2C
:10022000980140E068E388E40E94480082E084BDD1
:1002300095E095BD80936E0088EC87BD8CE08AB90F
:100240007894FFCF1F920F920FB60F9211240F9048
:0C0250000FBE0F901F901895F894FFCF80
:00000001FF
