:100000000C9434000C9446000C9446000C9446006A
:100010000C9446000C9446000C9446000C94460048
:100020000C9446000C9446000C9446000C94460038
:100030000C9446000C9446000C944F010C9446001E
:100040000C9446000C9446000C9446000C94460018
:100050000C9446000C9446000C9446000C94460008
:100060000C946E000C94460011241FBECFEFD8E014
:10007000DEBFCDBF21E0A0E0B1E001C01D92A23003
:10008000B207E1F70E942A010C9459010C94000078
:100090000F931F93E0910001F09101011082E09114
:1000A0000001F09101011182E0910001F091010144
:1000B000128234832383168305834093B900E8EBCF
:1000C000F0E06083880F81608093BA0080E28083D3
:1000D00085E48093BC001F910F9108951F920F92A9
:1000E0000FB60F9211242F933F934F935F936F930B
:1000F0007F938F939F93AF93BF93EF93FF938091E1
:10010000B900887F8038D1F030F4882309F480C0AA
:10011000803659F081C0883A09F45DC0883B09F403
:100120005AC0803A09F444C077C085EC8093BC0083
:10013000E0910001F0910101108271C0E091000195
:10014000F09101018081811112C08091BB008183F7
:1001500085EC8093BC00E0910001F0910101818168
:10016000A381B481A80FB11D8C91828319C0813005
:1001700021F485EC8093BC0013C08091BB00918179
:100180000580F681E02DE90FF11D808385EC8093D9
:10019000BC00E0910001F091010181818F5F8183BA
:1001A000E0910001F091010180818F5F808337C071
:1001B000E0910001F09101018081813021F4818181
:1001C0000E94250104C0833010F00E94200185ECBC
:1001D0008093BC0024C0E0910001F0910101828174
:1001E0008093BB0085EC8093BC00E0910001F0910E
:1001F000010181818F5F8183E0910001F091010114
:100200008181A381B481A80FB11D8C91828307C025
:1002100085E98093BC0003C085EC8093BC00FF910E
:10022000EF91BF91AF919F918F917F916F915F916E
:100230004F913F912F910F900FBE0F901F901895E7
:100240009BB188E089278BB908959BB184E0892709
:100250008BB90895CF93DF93CDB7DEB761970FB613
:10026000F894DEBF0FBECDBFCE010B969093010177
:10027000809300018E010F5F1F4F980140E068E3FB
:1002800088E40E94480082E084BD95E095BD80939B
:100290006E0088EC87BD8CE08AB97894FFCF1F92FE
:1002A0000F920FB60F9211240F900FBE0F901F9058
:0602B0001895F894FFCF41
:00000001FF
